{
  "contractName": "Counter",
  "abi": [
    {
      "inputs": [],
      "stateMutability": "nonpayable",
      "type": "constructor"
    },
    {
      "inputs": [],
      "name": "counter",
      "outputs": [
        {
          "internalType": "uint256",
          "name": "",
          "type": "uint256"
        }
      ],
      "stateMutability": "view",
      "type": "function",
      "constant": true
    },
    {
      "inputs": [],
      "name": "count",
      "outputs": [],
      "stateMutability": "nonpayable",
      "type": "function"
    }
  ],
  "bytecode": "0x608060405234801561001057600080fd5b506000808190555061016f806100276000396000f3fe608060405234801561001057600080fd5b50600436106100365760003560e01c806306661abd1461003b57806361bc221a14610045575b600080fd5b610043610063565b005b61004d61007a565b60405161005a9190610099565b60405180910390f35b600160005461007291906100e3565b600081905550565b60005481565b6000819050919050565b61009381610080565b82525050565b60006020820190506100ae600083018461008a565b92915050565b7f4e487b7100000000000000000000000000000000000000000000000000000000600052601160045260246000fd5b60006100ee82610080565b91506100f983610080565b9250827fffffffffffffffffffffffffffffffffffffffffffffffffffffffffffffffff0382111561012e5761012d6100b4565b5b82820190509291505056fea2646970667358221220edd022acde6a67afefa92d127c98484c6786af4f08f45c488c87c20c69004cdc64736f6c63430008090033",
  "immutableReferences": {},
  "source": "// SPDX-License-Identifier: MIT\npragma solidity ^0.8.0;\ncontract Counter {\n    uint public counter;\n    constructor() {\n        counter = 0;\n }\n    function count() public {\n        counter = counter + 1;\n }\n \n}",
  "sourcePath": "/Users/xiaonahe/Desktop/Okex-TrainingCamp/w1/test2/contracts/Counter.sol",
  "compiler": {
    "name": "solc",
    "version": "0.8.9+commit.e5eed63a.Emscripten.clang"
  },
  "schemaVersion": "3.4.5",
  "updatedAt": "2022-02-27T04:35:23.259Z",
  "networkType": "ethereum",
  "devdoc": {
    "kind": "dev",
    "methods": {},
    "version": 1
  },
  "userdoc": {
    "kind": "user",
    "methods": {},
    "version": 1
  }
}